:020000040800F2
:1000000000190020DD020008D75F00086D4A0008D3
:10001000D55F00082F2100080974000800000000C7
:10002000000000000000000000000000D56700088C
:10003000832100080000000091610008D7670008D4
:10004000F7020008F7020008F7020008F7020008AC
:10005000F7020008F70200089B210008F7020008D9
:10006000F7020008F7020008F7020008F70200088C
:10007000F7020008F7020008F70200083121000823
:100080003D210008F7020008F7020008F702000807
:10009000F7020008F7020008F7020008A92100088B
:1000A000F7020008F7020008F7020008F70200084C
:1000B000F7020008FD680008F7020008F7020008D0
:1000C000F7020008F7020008F7020008F70200082C
:1000D000F7020008B1730008F5730008F702000882
:1000E000A1210008F7020008F7020008F702000843
:1000F000F7020008F7020008F7020008F7020008FC
:10010000F7020008F7020008F7020008F7020008EB
:10011000F7020008F7020008F7020008F7020008DB
:10012000F7020008F7020008F7020008F7020008CB
:10013000F7020008F7020008F7020008F7020008BB
:10014000F7020008F7020008F7020008F7020008AB
:10015000F7020008492100087D530008F702000853
:10016000F7020008F7020008F7020008F70200088B
:10017000F7020008F7020008F7020008000000007C
:10018000F7020008F702000800F002F800F096F805
:100190000AA090E8000C82448344AAF10107DA45E2
:1001A00001D100F08BF8AFF2090EBAE80F0013F09E
:1001B000010F18BFFB1A43F0010318479C9500007C
:1001C000BC950000103A24BF78C878C1FAD852070D
:1001D00024BF30C830C144BF04680C6070470000C1
:1001E0000023002400250026103A28BF78C1FBD840
:1001F000520728BF30C148BF0B6070476E2900F01E
:100200002183702900F06F84662908F0DA8065295F
:1002100008F0D780672908F0D480612908F0D380DE
:1002200003681B0A28BF41F08001692900F0CE82D3
:10023000642900F0CB82752900F0C8826F2900F094
:10024000FC83782900F03B84E92900F09783E429B6
:1002500000F09483F52900F09183EF2900F0F983F1
:10026000F82900F03A840368DB0928BF41F08001D7
:10027000632901F09681732901F09B81E32901F044
:10028000A681F32901F0AB81002070471FB508F06B
:100290008EF89DE8030000F001FA01F0F9F904007E
:1002A0000020002107F0A2FE401C60600020002119
:1002B00007F086FEE0601FBD10B510BD01F0BBF970
:1002C0001146FFF7E3FF07F02DFB01F097FA03B4A7
:1002D000FFF7F2FF03BC01F0C7FA000009488047AE
:1002E00009480047FEE7FEE7FEE7FEE7FEE7FEE718
:1002F000FEE7FEE7FEE7FEE704480549054A064B30
:1003000070470000516800088901000800130020B0
:1003100000190020001500200015002070B50646C9
:1003200000F0A0F9056806F10B0020F00704B442C4
:100330009CBF002070BD2B466A68BAB11068A0420D
:1003400010D304F1080188423CBF5068586007D3BD
:100350005168101941601168091B016058601460F0
:10036000101D70BD13465268002AE7D12146284669
:1003700000F080F90028DED170BD70B50446051F7D
:1003800000F070F90068002C14BF446870BD002CA8
:1003900018BFAC423CBF20466468F8D301680A1815
:1003A000AA4218BF456003D12A680546114401607E
:1003B00028684119A1421CBF6C6070BD616869600A
:1003C00021680844286070BD53EA020C00F069807F
:1003D0002DE9F04B4FF00006002B1FBFB3FA83F559
:1003E00003FA05F424FA05F65E4012BF1643B2FA8A
:1003F00082F502FA05F4C5F120051EBF22FA05FCBC
:1004000044EA0C04203556EA044C4FEA144418BF61
:10041000641C4FF000084FF00009904271EB030C90
:1004200039D3002919BFB1FA81F701FA07F6B0FAFA
:1004300080F700FA07F6C7F120071EBF20FA07FC75
:1004400046EA0C062037B6FBF4FCA7EB0507103F85
:1004500007F01F0BCBF120060CFA0BFB2CFA06F66B
:1004600044BFB3460026202FA4BF5E464FF0000BCA
:100470005BEA060C08BF4FF0010B19EB0B09ABFB55
:10048000027C48EB0608C01B06FB02CC0BFB03CC2E
:1004900071EB0C01C1E70B46024641464846BDE8F8
:1004A000F08B13B54FF000004FF00001AFF3008068
:1004B000BDE81C40704700007CB51D4616460C0088
:1004C000009001D02044401E074B7B442A466946D9
:1004D0000190304600F0CFF905461CB10020694676
:1004E00000F0DCF928467CBDD903000010B5431CA0
:1004F00002E010F8011B71B18107FAD14FF001320F
:1005000002C88C1A8C4314EAC211F9D0C01A0A0628
:1005100003D0C01E10BDC01A10BD0A0401D0801E39
:1005200010BD0902FCD0401E10BD421E12F8013F52
:10053000002BFBD111F8013B002B02F8013BF9D154
:100540007047032A40F2308010F0030C00F0158051
:1005500011F8013BBCF1020F624498BF11F801CBC6
:1005600000F8013B38BF11F8013BA2F1040298BF2B
:1005700000F801CB38BF00F8013B11F0030300F095
:100580008483083AC0F0088051F8043B083A51F8D7
:1005900004CBA0E80810F5E7121D5CBF51F8043B3E
:1005A00040F8043BAFF30080D20724BF11F8013BB1
:1005B00011F801CB48BF11F8012B24BF00F8013B13
:1005C00000F801CB48BF00F8012B70474FF0000244
:1005D0000429C0F0128010F0030C00F01B80CCF155
:1005E000040CBCF1020F18BF00F8012BA8BF20F8C3
:1005F000022BA1EB0C0100F00DB85FEAC17C24BF17
:1006000000F8012B00F8012B48BF00F8012B7047C0
:100610004FF0000200B5134694469646203922BF9B
:10062000A0E80C50A0E80C50B1F12001BFF4F7AFE6
:10063000090728BFA0E80C5048BF0CC05DF804EBC8
:10064000890028BF40F8042B08BF704748BF20F836
:10065000022B11F0804F18BF00F8012B7047704734
:100660007047704700487047A812002070477047D5
:100670007047704738B504460A4600206946AFF314
:100680000080002808BF38BD02460099204600F0CF
:1006900033FB012038BD012000F0C5BFF8B5AFF332
:1006A0000080054600200C46102000BF0646A81911
:1006B000A0420DD9324669460020AFF30080070002
:1006C00008BF00F0B0FF0098A04218BF0546C4194B
:1006D000FFF7C8FF05600746F01D20F00700461928
:1006E000284600F00AF8B44208BFF8BDA21B314604
:1006F0003868BDE8F84000F0FFBA00210160C0E9A9
:10070000011070471020704770B504468569006875
:10071000C10601D5302600E02026C00707D070BDF5
:10072000D4E9012130469047206A401C20626D1EAA
:10073000F6D570BD70B5044685690078C00707D14D
:1007400070BDD4E9012120209047206A401C20621E
:100750006D1EF6D570BD09684A0501D540B27047D7
:10076000C905FCD500B2704709684A0501D5C0B279
:100770007047C905FCD580B2704770B50C46054678
:10078000012A05D02878800600D5EA69002302E016
:10079000012305E05B1C934202D2E05C0028F9D102
:1007A000A869E618C01AA861286A18442862284671
:1007B000FFF7AAFF04E0D5E9012114F8010B9047E7
:1007C000B442F8D32846FFF7B5FF70BD2DE9F041DC
:1007D0000646002410687529314616A510D0FFF78B
:1007E000BAFF002802DA404213A507E031688A0701
:1007F00001D512A502E0490704D511A5012401E0A5
:10080000FFF7B2FF00210A2206F1240709E0B0FB3E
:10081000F2FCB0FBF2F302FB1C00303078541846B7
:10082000491C0028F3D123462A463046BDE8F04152
:1008300000F0C1BA000000002D0000002B000000F5
:100840002000000011680268006A530501D5087095
:100850000AE0D30501D5088006E0130603D5C217C8
:10086000C1E9000200E008600120704701694A1CEC
:1008700002610878704700B58FB0CDE901310021E1
:10088000059105497944CDE903101146684600F009
:1008900035F90FB000BD0000E5FFFFFF0A6802F860
:1008A000010B0A607047D1E900239A4202D2531C1F
:1008B0000B601070704700002DE9FF5F15468A46F7
:1008C0000446DFF8AC80F8440027D8E900103E4623
:1008D000CDE9001010E03AF816106A4602A800F0C0
:1008E00082FE411C07D02178890603D5E2693918B8
:1008F00091420DD80744761C2078800602D5E06925
:10090000B84205DDAE42E6DB3AF816000028E2D137
:10091000A069C01BA0612046FFF7F6FED8E90010D1
:10092000CDE90010002017E03AF818106A4602A836
:1009300000F059FEB0F1FF3F81460BD000250DF1CC
:10094000080B05E0D4E901211BF8050090476D1C58
:100950004D45F7D308F10100B0428046E4DB206A40
:10096000384420622046FFF7E5FE00F003B800009F
:10097000D28C00003FBCBDE8C09F00002DE9F041D3
:100980008046D21D22F007020025D2E90002F52997
:1009900015A614D0011E72F1000106DA0023D0EB77
:1009A000030063EB020211A608E0D8F800108B07E1
:1009B00001D50FA602E0490701D50EA60125114673
:1009C000002408F1240704E000F0B0F930323A5571
:1009D000641C50EA0102F7D12B46324621464046BC
:1009E000BDE8F04100F0E7B9000000002D00000074
:1009F0002B0000002000000030B4002100F124048E
:100A000008E002F00705D208303542EA4372DB08FD
:100A10006554491C52EA0305F3D10468002310A26F
:100A2000250707D5A40600D421B1C46901230DA26E
:100A3000641EC46130BC00F0BEB910B50446214646
:100A40001068FFF791FE02462046BDE810400023E3
:100A5000D2E7D21D22F00701D1E90023CCE7000044
:100A60000000000030000000F0B40D4601880905C8
:100A700002D5214C7C4402E01F4C7C440E34002102
:100A800000F1240608E002F00F071209E75D42EAD0
:100A900003721B097754491C52EA0307F3D1027809
:100AA0000023120704D5702D06D009B1022311349A
:100AB0002246F0BC00F07FB901231034F8E770B58E
:100AC00004460D4621461068FFF74EFE02462946B1
:100AD0002046BDE870400023C6E7D21D22F0070380
:100AE000D3E90023C0E70368126843F020030360E2
:100AF0000823C3610023B7E72C8B00002DE9F05FCA
:100B0000894604464FF0000ADFF874B1FB44C0F890
:100B100020A02046E1688847002874D0252806D008
:100B2000D4E901219047206A401C2062F1E70026A9
:100B30005F462046E16888472028054607DB312DBF
:100B400005D2781910F8200C08B10643F1E7B00778
:100B500001D526F00406C4F81CA00027C4F818A08C
:100B60002A2D09D0284606F0F1FC38B304EB87089B
:100B7000303DC8F8185019E059F8041B204604EB22
:100B800087029161E1688847012F054618D1E06925
:100B9000002820DA26F020061DE0D8F8180000EB27
:100BA000800005EB40003038C8F818002046E168A6
:100BB0008847054606F0CAFC0028EED1012F0AD06E
:100BC0002E2D08D12046E16888477F1C0546022F5C
:100BD00046F02006C4DBA069002803DA404246F054
:100BE0000106A061F00701D026F010066C2D0BD095
:100BF000682D09D04C2D39D06A2D35D0742D35D0C3
:100C00007A2D33D016E038E0E1682F462046884739
:100C1000B842054609D16C2F26D04FF48060E168B8
:100C2000064320468847054604E06C2F1AD04FF44F
:100C3000807006430DB3A5F14100192802D8203574
:100C400046F400664A462946204626604E46FFF78F
:100C5000D5FA80B101280BD0F61D26F0070000F16F
:100C6000080956E74020E4E78020D8E70020D6E7CF
:100C700006F104094DE7284652E7206A00F002B861
:100C8000BC8A000030BCBDE8C09F10B5203AC0F05F
:100C90000B80B1E81850203AA0E81850B1E818507D
:100CA000A0E81850BFF4F5AF5FEA027C24BFB1E8BA
:100CB0001850A0E8185044BF18C918C0BDE810402B
:100CC0005FEA827C24BF51F8043B40F8043B08BF34
:100CD0007047D20728BF31F8023B48BF11F8012BFB
:100CE00028BF20F8023B48BF00F8012B70470000E6
:100CF00000487047A0120020034640688C46002838
:100D000018BF88423CBF03464068F8D318681844AF
:100D1000884207D00CF1030020F00700001D411AA3
:100D2000521A0146081D0A60FFF727BB30B5B0F123
:100D30000A024FEA900E71F100034EEA817EB0EB99
:100D40000E0061EB91014FEA101E4EEA017E10EB9E
:100D50000E0041EB11114FEA102E4EEA016E10EB1E
:100D60000E0041EB11214FEA104E4EEA014E10EBFE
:100D70000E0041EB1141401841F100014FEAD00053
:100D800040EA41704FEAD10110EB80054FEA81043F
:100D900044EA907444EB01046D1944EB0404521BC3
:100DA000A3414FF0000348BF0A3200D530BD401CBC
:100DB00041F1000130BD2DE9F0470D4699469246BC
:100DC000044600F124080168880604D5E06921F092
:100DD0001001216000E00120A84201DD471B00E076
:100DE0000027A1697A1902EB0900081AA06120788E
:100DF000C00602D42046FFF787FC002608E0D4E9AD
:100E000001211AF806009047206A401C761C2062D7
:100E10004E45F4DB2078C0060AD52046FFF774FC67
:100E200006E0D4E9012130209047206A401C20626E
:100E3000381EA7F10107F4DC07E0D4E9012118F816
:100E400005009047206A401C2062281EA5F101057C
:100E5000F3DC2046FFF76EFC2078000602D5022066
:100E6000BDE8F0870120FBE770472DE9FF4F0C46F6
:100E70001E464FF0FF378BB0D2E90001DDF86080ED
:100E80000A908A46C1F30A5505B93D460021084635
:100E90004FF00000BAF1000F00F4400005DA00EB5B
:100EA00080004FF4400101EA50004FEA9059B9F137
:100EB000010F00DDB9460A9850EA4A000ED044F608
:100EC0001050A5F2FF3545432F14B8F1000F1ED086
:100ED0007542291E1EDDC9F100021CE0B8F1010FA8
:100EE0004FF0000001D0302103E0F24305E021542F
:100EF000401CB042FBDB30460022002121540B99FC
:100F0000C1F80880C1E900200FB000F0BCB9BD1BDA
:100F10006D1CDEE74A4600DA694206A800F0FCFBD9
:100F200006AB93E8070003AB83E8070050460A9935
:100F300000F001FD8DE80700A0F500501F3800907B
:100F40000398002D0ADD42F21F014A46084400239F
:100F500003A90390684600F06AFF09E0A0F500507D
:100F60004A461F38002303A90390684600F074FF27
:100F70008DE807000004000C03D04FF0FF3041085B
:100F800000E01046B8F1000F03D000220092154691
:100F90001EE0751E05D4FFF7C9FE303262556D1E86
:100FA000F9D5B3460122084302D000227F1C04E099
:100FB0002078302801D100227F1E002A099784D092
:100FC0001DE0112D07DAFFF7B1FE303262556D1CBE
:100FD00050EA0102F5D1084302D00098C8B10EE0F2
:100FE0000021681E05E0235C625C63542254401EAD
:100FF000491C8142F7DBAB46A81B401E099000202C
:1010000004F80B000B98099AC0F80880C0E9002B7F
:101010007AE711264FF0000857E72DE9F04F884690
:101020000446D21D22F0070191B0D1E90001CDE9BB
:101030000A0106F063FA02460B98C00F01D02D207A
:1010400007E02068810701D52B2002E0202101EA7A
:10105000C000032A099001D0072A05DB0346414658
:10106000204600F019FB0BE12078800601D5E069ED
:1010700000E00620B8F1650F814606D0B8F1660F92
:1010800018D0B8F1670F70D131E00020B9F1110F1D
:10109000009001DB112301E009F101030AAA01A973
:1010A0000CA8FFF7E2FEDDE90C70002609F101054E
:1010B000834647E001204B4600904FF000470AAAC4
:1010C00001A90CA8FFF7D1FEDDE90DB00C995D4632
:1010D000002610B909F101000D18B9EB050003D481
:1010E000C0F1FF3609F10105A5EB09002BE0B9F1CC
:1010F000010F01DA4FF001090020B9F1110F009042
:10110000484601DD112300E003460AAA01A90CA804
:10111000FFF7ABFEDDE90C704D46002683462078D4
:1011200000070AD4AB4500DA5D4601A8012D04DDB5
:10113000411911F8011C302907D04F4502DA17F187
:10114000040F04DA012082460FE06D1EEEE7002F47
:1011500002DCED1B3E4403E0781CA84200DD7D1C50
:10116000B81B00F1010A4FF000472078000703D4B4
:10117000AA4501DB4FF0FF3A0021B7F1004F0DF116
:1011800043088DF8431024D002202B23002F01DACE
:101190007F422D230A21021EA0F1010000DC5FB175
:1011A00097FBF1FC97FBF1F201FB1C7C17460CF15D
:1011B000300C08F801CDEEE7A8F10100037021889A
:1011C000090501D5452100E06521A0F1010800F8DD
:1011D000011C09980FA9A1EB0807FF1D00B1012010
:1011E000411901EBEA70A1693844081A401EA06158
:1011F0002078C00602D42046FFF786FA099828B165
:10120000D4E901219047206A401C20622078C00662
:1012100022D52046FFF778FA1EE0002E04DBB34506
:1012200002DD01A8805D00E03020D4E90121904773
:10123000206A401C2062761CAAF101005FEA000AC5
:101240000AD100F025FAC0680168405CD4E90121A8
:101250009047206A401C2062281EA5F10105DCDCB5
:1012600007E0D4E9012118F8010B9047206A401CDF
:101270002062381EA7F10107F3DC2046FFF75AFA77
:10128000032011B041E630BCBDE8C08F2DE9F04F1E
:1012900004460D46D21D22F0070089B0D0E9009720
:1012A0004846394606F02AF90246F80F01D02D23A8
:1012B00007E02068810701D52B2302E0202101EA05
:1012C000C0038DF820300BB1012000E00020032A7C
:1012D000824601D0072A04DB2946204600F0DCF9CB
:1012E0003FE12078800601D40D2500E0E569C7F3D1
:1012F0000A560D2D49DA00214FEA175B08464FF0D8
:101300000000002F00F4400007DA00EB80004FF4EB
:10131000400100EBD07001EA60008115012901DD78
:101320004FF0FF3100224FEA850CBCF1180F06D3B5
:101330001346ACF118004FF08052C24003E04FF466
:10134000801323FA0CF30CF10C0CBCF1200F04D326
:10135000ACF1200C09FA0CF001E007FA0CF00029BE
:101360004FF0004801DD18B90FE00ED140450CD315
:1013700019EB02095F4121B9404502D19F4329EA97
:101380000209BBEB175F00D0761C2088000502D550
:101390007B48784402E07A487844193808AA302318
:1013A00002F80A30037C0AF10101002E0AF1020A58
:1013B00053546A4602DC4FF0300101E04FF0310136
:1013C0004FF001088DF8001002D0A6F2FF3603E0BE
:1013D00059EA470100D06B4E002D02DC2178090745
:1013E00004D54FF002082E218DF80110C4460021CB
:1013F0000BE0C7F303433F01C35C491C6D1E02F8B9
:101400000830052908F1010801DA002DF1DC00217E
:101410000CE000EB1973491C1B786D1E082902F8BB
:1014200008304FEA091908F1010801DA002DF0DC53
:1014300021688B0602D516E0A8F10108E04505DD1C
:1014400002EB080313F8013C302BF5D0B8F1000F84
:1014500009DD02EB080313F8013C2E2B03D1090729
:1014600001D4A8F10108002D05DD3E2102F8081085
:101470006D1E08F10108407C002E02F8080008F1FA
:10148000010804DA2D20764202F8080002E02B2041
:1014900002F808000A214FF47A70864208F1010828
:1014A0000BDB96FBF0F3303302F8083096FBF0F3D9
:1014B00008F1010800FB136601E0642E0CDB6420D8
:1014C00096FBF0F3303302F8083096FBF0F308F1A6
:1014D000010800FB136601E00A2E06DB96FBF1F023
:1014E000303002F8080008F1010896FBF1F001FB2A
:1014F0001060303002F80800A16908F1010808EB1B
:10150000050202EB0A00081AA0612078C00602D486
:101510002046FFF7F9F8216A08AE01EB0A002062C5
:1015200004E0D4E9012116F8010B9047BAF1010A51
:10153000F7D22078C00602D52046FFF7E5F86E46C0
:1015400009E016F8010B3E280FD0D4E9012190479D
:10155000206A401C2062B8F10108F2D22046FFF751
:10156000E9F809B0032000F00FB8206A284420628F
:1015700003E0D4E90121302090476D1EEBD3F8E75A
:101580005A82000002FCFFFF30BCBDE8C08F10B5DE
:10159000436913B1AFF3008001E0FFF7EEF80120DB
:1015A00010BD127800F124010A7000224A70012255
:1015B000EDE711684FF0FF32E9E710B5436913B169
:1015C000AFF3008001E0FFF777F9012010BD12882A
:1015D00000F1240182840022C2840122EDE7116817
:1015E0004FF0FF32E9E770B516460C46054600F0AD
:1015F00047F8036893F80101012806D0FF2C0FD8A3
:10160000185D68B101202C7070BDD3F80701324617
:10161000214603F2071303442846BDE870401847EB
:101620004FF0FF3070BD10B500F0F6F8BDE8104087
:1016300000F0EDB870477546FFF75AFBAE4605005F
:101640006946534620F00700854618B020B5FEF7DE
:1016500053FEBDE820404FF000064FF000074FF06A
:1016600000084FF0000B21F00701AC46ACE8C009C0
:10167000ACE8C009ACE8C009ACE8C0098D467047C9
:1016800010B500F005F8001D10BD00BF6169000035
:1016900000487047C01200202DE9F0411F46044663
:1016A00003260168072A01F4006004DB08B116A5CF
:1016B00005E016A503E008B115A500E015A521F089
:1016C00010002060A069C01EA0610FB1401EA06183
:1016D0002046FFF719F84FB1D4E901213846904769
:1016E000206A401C2062C01C206206E0206AFAE7E3
:1016F000D4E9012115F8010B9047761EF8D2204657
:10170000FFF718F8BDE8F0814E414E006E616E00A3
:10171000494E4600696E66002DE9F047814616463F
:101720008AB0354878440DC88DE80D0032487844B9
:10173000801C03AC0DC884E80D0041F69B300844C2
:10174000372190FBF1F290FBF1F5A5F1800501FB4B
:1017500012041B3C02D56442012000E00020DFF8A7
:1017600098A080460027FA44AAF1BE0A0EE0E007DE
:101770000AD03246684607EB470101230AEB810194
:1017800000F06AFB8DE8070064107F1C002CEED18E
:10179000194F7F44AE3F19E0E80715D007EB04105E
:1017A0000DF1180A90E80E008AE80E00C068F042B9
:1017B00001D1981908903246012306A903A800F028
:1017C0004BFB03AB83E807006D10641C002DE3D1D5
:1017D0004FF0010332466946B8F1000F03A802D06A
:1017E00000F025FB01E000F037FBC9E90001C9F872
:1017F00008200AB0BDE8F087587F000010B5044605
:10180000AFF300802046BDE81040FEF760BD002821
:1018100001D000F029B8704710B5012805D000218B
:1018200003A000F027F8012010BD09A1F8E700008F
:1018300053494752544D454D3A204F7574206F66B9
:101840002068656170206D656D6F72790000000021
:101850003A2048656170206D656D6F727920636F05
:10186000727275707465640001491820ABBEFEE7A2
:101870002600020070B505460C460A2000E06D1CEB
:1018800000F052F835B128780028F8D102E0641C45
:1018900000F04AF814B120780028F8D1BDE8704073
:1018A0000A2000F041B800004FF0013C50F8042B32
:1018B00051F8043B9A4221D1A2EB0C03934313EA63
:1018C000CC1317D150F8042B51F8043B9A4215D190
:1018D000A2EB0C03934313EACC130BD150F8042B67
:1018E00051F8043B9A4209D1A2EB0C03934313EA4B
:1018F000CC13DBD04FF00000704700BFD01A01BA04
:10190000B1FA81F101F0180122FA01F0CB40C1F1E6
:101910002001DBB2C0B2C01A2CFA01F3D11A9143F4
:1019200011EAC311E6D1704708B569468DF8000089
:101930000320ABBE08BD5FEA400C08BF91F0000F6A
:101940004FEA8C234FEAC12243EA51514FEA1C501F
:1019500018BF00F5F0404FEA300018BF41F00041D9
:101960005FEA6C5C00F02980BCF1FF3F08BF40F0EB
:1019700080407047130C06BF12044FF0100C4FF05C
:10198000000C130E04BF12020CF1080C130F04BF5D
:1019900012010CF1040C930F04BF92000CF1020C25
:1019A000D30F04BF52000CF1010C11464FF000029E
:1019B000A0F11F00A0EB0C00704711F0004F08BF12
:1019C000704731F000413FF4D5AF0B0C06BF09045E
:1019D0004FF0100C4FF0000C0B0E04BF09020CF17D
:1019E000080C0B0F04BF09010CF1040C8B0F04BF92
:1019F00089000CF1020CCB0F04BF49000CF1010C63
:101A0000CCF12003A0EB0C0022FA03F302FA0CF253
:101A100041EA030100F10100704720F07F4C80EAA9
:101A2000030023F07F47ACEB070303F57C5300F082
:101A3000004003F1FF032DE980494FEA154B09B43B
:101A40004FEA144325EA0B4E24EA03480FF204261A
:101A500006EB132749083E785FEA320203FB06676C
:101A6000C7F5000707FB06F64FEA54374FEAD6469C
:101A700006F1020607FB066CCCF1005C4FEA1C473E
:101A80002CEA074C07FB06F40CFB06F504EB1546A5
:101A90004FEA961634BF00204FF000404FEAD1378E
:101AA00006FB07FC4FEA1C4C0CFB0BF7D21B03FB9D
:101AB0000CF761EB07010CFB0EF7B0EB074072EB84
:101AC00017420CFB08F734BFA2EB0742B2EB074208
:101AD00061EB17414FEA0C444FEA910706FB07FC04
:101AE0004FEA1C4C0CFB0BF7B0EBC74072EB5732C4
:101AF00003FB0CF734BFA2EBC742B2EBC74261EB6A
:101B000057310CFB0EF7B0EBC70072EB57720CFBB2
:101B100008F734BFA2EBC702B2EBC70261EB577103
:101B2000039F4FEA816141EA921104EBCC044FEA32
:101B3000D1374FEA826206FB07FC42EA90124FEA75
:101B400080604FEA1C4C0CFB0BF7D21B03FB0CF71D
:101B500061EB07010CFB0EF7B0EB074072EB17428D
:101B60000CFB08F734BFA2EB0742B2EB074261EB74
:101B700017414FEA8C554FEA910704EB9C2406FB72
:101B800007FC4FEA1C4C0CFB0BF7B0EBC74072EBA9
:101B9000573203FB0CF734BFA2EBC742B2EBC7428C
:101BA00061EB57310CFB0EF7B0EBC70072EB5772CD
:101BB0000CFB08F734BFA2EBC702B2EBC70261EB24
:101BC000577115EB4C254FEA816141EA92114FEABA
:101BD00082624FEAD13742EA901206FB07FC44F1D9
:101BE00000044FEA80604FEA1C4C0CFB0BF7D21B41
:101BF00003FB0CF761EB07010CFB0EF7B0EB0740A2
:101C000072EB17420CFB08F734BFA2EB0742B2EBB2
:101C1000074261EB174115EB1C154FEA813141EA90
:101C200092414FEA823242EA90424FEA80304FEAD4
:101C30000C7644F1000448EA03434EEA0B484FF0A7
:101C4000000EB2EB080C71EB030724BF6246394665
:101C50004EEB0E0E4FF0000B0018524149414BEB7A
:101C60000B0BB2EB080C71EB03077BF1000B24BFED
:101C7000624639464EEB0E0E4FF0000B00185241F3
:101C800049414BEB0B0BB2EB080C71EB03077BF1FB
:101C9000000B24BF624639464EEB0E0E51EA020796
:101CA00018BF46F0010616EB0E7655F1000254F10E
:101CB000000103D5BDE88901BDE80088BDE88901C0
:101CC000BDE80048B619524141EB0101A3F10103FF
:101CD000704780807F7E7D7C7B7A79787776767599
:101CE0007473727171706F6E6E6D6C6C6B6A6A6911
:101CF0006868676666656464636362616160605FAB
:101D00005F5E5E5D5D5C5C5B5B5A5A595958585723
:101D1000575656555555545453535252525151508B
:101D200050504F4F4F4E4E4D4D4D4C4C4C4B4B4BDE
:101D30004A4A4A4949494848484747474746464624
:101D4000454545444444444343434342424242415F
:101D50004141002B9C4630D477002BD01CB54FEA74
:101D6000370703B44FF010004FF01001BAF1000F25
:101D700006D0BCF1000FDCBF40F0080040F00801C5
:101D80004FF000000FBCBDE810400BF1010BBBF1A0
:101D9000010F08BF5FEA170722BF12F1010211F11C
:101DA00001014FF0004143F1000300F0004043EA1D
:101DB00000007047F9D35708D0E746EA064613F10A
:101DC000400F4FEA16461FDD13F1200FDFBF164309
:101DD0000A46002120335B42BED0C3F1200746EA09
:101DE000064602FA07F74FEA164646EA0706C3F127
:101DF000200722FA03F201FA07F721FA03F14FF064
:101E0000000342EA0702A7E746EA020646EA064658
:101E10004FEA164646EA0106BCBF46EA0646360CBD
:101E20004FF000034FF000024FF0000194E72DE95E
:101E3000804C9A46934670B491E8380007C831EA5E
:101E4000400C48BF34EA430C03D5FFF7E6FDFFF72B
:101E500080FFF0BCBDE8008C2DE9804C9A4693468B
:101E600070B491E8380007C810F0804F08BF13F035
:101E7000804F03D100F005F8FFF76BFFF0BCBDE821
:101E8000008C20F07F4780EA030023F07F4C07EBB3
:101E90000C03A3F57C5300F00040A3F1FE0392F085
:101EA000000F00F0B38095F0000F00F077802DE96F
:101EB00001494FEA11404FEA144621EA004800FB6D
:101EC00006FC24EA064708FB06F607FB08F800FBB9
:101ED00007F718EB06484CEB164C4FEA124B18EB81
:101EE00007484FEA15464CEB174022EA0B4E0BFB16
:101EF00006FC25EA06470EFB06F607FB0EFE0BFB6B
:101F000007F71EEB064E4CEB164C4FF000061EEB8F
:101F1000074E4CEB174B18EB0B0840F1000018EB89
:101F20000E0B58EB000840F100008F1A4FF0000133
:101F30003CBFC943661B14BFB5EB040C00213CBF7A
:101F4000C943F61B4FEA17444EEA8E0E27EA0445B2
:101F50004FEA1C4704FB07622CEA074C05FB07F716
:101F60000CFB05F604FB0CFC16EB074642EB174294
:101F700016EB0C4642EB1C421BEB060658EB02022A
:101F8000414146EA9E0601D5BDE80189B619524194
:101F900041EB0101A3F10103BDE801894FEA1445BA
:101FA0004FEA114724EA054621EA074C05FB07F4EE
:101FB00006FB07F70CFB06F105FB0CFC11EB0741D8
:101FC00044EB17444FEA124711EB0C4144EB1C441D
:101FD00022EA074C05FB07F206FB07F70CFB06F6A7
:101FE00005FB0CFC16EB074642EB174216EB0C46C2
:101FF00042EB1C456A1854F1000148BF7047B619FE
:10200000524141EB0101A3F10103704795F0000F2C
:1020100037D04FEA11424FEA144721EA024624EA38
:10202000074C02FB07F106FB07F70CFB06F402FB6B
:102030000CFC14EB074441EB17414FEA154714EB36
:102040000C4441EB1C4125EA074C02FB07F506FB5B
:1020500007F70CFB06F602FB0CFC16EB074645EBFC
:10206000174516EB0C4645EB1C42121951F10001C5
:1020700048BF7047B619524141EB0101A3F101037A
:1020800070474FEA14454FEA114724EA054621EA12
:10209000074C05FB07F106FB07F70CFB06F24FF0B8
:1020A000000605FB0CFC12EB074241EB174112EB5B
:1020B0000C4251EB1C4148BF7047921841EB0101A3
:1020C000A3F101037047000070B588B006460025F3
:1020D0006C46304605F0AEF924F815006D1CADB223
:1020E0000F2DF6D30020431C99B20BE034F81020DA
:1020F00034F81150AA4203D924F8105024F81120C2
:10210000491C89B20F29F1D398B20E28EBD30021D4
:102110005FF0050034F81020401C114480B289B2F1
:102120000A28F7D30520B1FBF0F008B070BDFEE738
:10213000014800F08CB800008C0E0020014800F02F
:1021400086B80000D40E0020014800F080B80000DE
:10215000440E002030B590F8444004F01C050124E2
:10216000AC40056C6C60046863608368102B036886
:1021700003D099600068C26030BD9A600068C16099
:1021800030BD70470622002104E0521ED2B2FCD2BC
:10219000491CC9B28142F8D37047012000F0E0B970
:1021A0004FF4005000F0DCB9402000F0D9B972B60D
:1021B000FEE710B590F825100022022905D0042171
:1021C000C16380F82420012010BD01680B6823F052
:1021D0000E030B6001680B6823F001030B6090F89D
:1021E0004410046C01F01C03012101FA03F3636045
:1021F00080F8251080F82420104610BD10B590F806
:1022000025100024022903D00421C16301241AE00F
:1022100001680A6822F00E020A6001680A6822F06A
:1022200001020A6090F84410036C01F01C020121C5
:1022300001FA02F25A6080F82510002180F824107B
:10224000816B01B18847204610BDC06B7047F0B468
:10225000016C0C6801680D6890F8442002F01C06BF
:10226000042202FA06F3234211D06B070FD50B6844
:102270009B0603D40B6823F004030B6090F8441012
:1022800001F01C018A40016C4A60016B1DE00223D1
:1022900003FA06F727424FF0000C4FF0010218D066
:1022A000AF0716D50C68A40605D40C6824F00A0400
:1022B0000C6080F8252090F8441001F01C018B4040
:1022C000016C4B6080F824C0C16A00291AD0F0BCB0
:1022D00008470823B340234214D02B0712D50B68BC
:1022E00023F00E030B6090F84410036C01F01C0106
:1022F00002FA01F15960C26380F8252080F824C0F9
:10230000416BE2E7F0BC704770B568B12B4C0368D5
:1023100014212B4AA34209D22A4C1C44B4FBF1F1EC
:102320008900C0E910210BE0012070BD234C6442FC
:102330001C44B4FBF1F1890041642049083901646F
:10234000022180F825101C6847F6F0718C43D0E913
:1023500002152943D0E904563543294385692943A9
:10236000C5692943056A2943214319608168B1F58C
:10237000804F19D0036C0F21934202D152F8A83F2D
:1023800002E00E4AA032136890F8444004F01C04A6
:10239000A1408B43136090F84430416803F01C0364
:1023A00099401368194311600021C163012280F82C
:1023B000252080F82410084670BD00000804024063
:1023C00000000240F8FFFDBF70B5044690F82400FD
:1023D000002501280CD0012084F8240094F8256001
:1023E0000020012E06D084F824000225284670BD66
:1023F000022070BD022684F82560E063206806682C
:1024000026F0010606602046FFF7A4FE206B002898
:102410002068016802D041F00E0106E021F00401BD
:1024200001602068016841F00A01016020680168CC
:1024300041F001010160D9E770B5044600F0B6F93A
:102440000546601C02D004480078044400F0AEF950
:10245000401BA042FAD370BD3C00002070B5384D3F
:102460004FF400542146284600F095F9354E28B91E
:102470004021304600F08FF9002860D021462846E0
:1024800000F089F9304C012518B92570C820FFF7F4
:10249000D3FF4021304600F07EF918B96570C8209E
:1024A000FFF7CAFF294801682748406802F0C2FCCC
:1024B00027480078012842D10121264800F06BF915
:1024C00000283CD1062000F0B7FC234C207A60BBEA
:1024D000A11D201D04F01AF82572B4F9140094ED22
:1024E000031A00EE100AA088F8EEC00A00EE100AE7
:1024F000B8EE400A41EE000ABCEEE00A10EE100A07
:102500002080B4F9160094ED041A00EE100AE08859
:1025100000EE900AB8EEC00AF8EE600A01EE200A5A
:10252000BCEEC00A10EE100A60800C4805600F2057
:1025300005F0C2F8BDE87040062000F08EBC70BD0A
:10254000000800480010004810000020280000206B
:102550003A000020000C00488812002014040140BA
:10256000044910B50A68024202D00860FFF776FFFE
:1025700010BD0000140401402DE9F04FDFF8EC918C
:1025800000220127A9F1040B85B003254FF00F0CA1
:1025900009F1040AABF1040EE0E000BF07FA02F40F
:1025A00016EA04037ED00E7906F00306012E01D050
:1025B000022E1FD186680096560005FA06F804968A
:1025C000009E26EA08060096D1F80C80049E08FAC0
:1025D00006F8009E48EA0608C0F80880466891F8A8
:1025E0000480A643C8F3001808FA02F848EA06086F
:1025F000C0F80480D1F804806FEA0806B6070AD153
:10260000C66AA643C8F3C00494403443C4620C793C
:10261000E443A4070AD0C4684FEA420805FA08F662
:10262000B4438E6806FA08F62643C6600C7904F0B7
:102630000304022C11D1D40800EB84060296D6F8CC
:1026400020805407E60E0CFA06F428EA04080C6908
:10265000B440029E44EA08043462046856000296BC
:1026600005FA06F6B4430E7906F00308029E08FA4E
:1026700006F848EA0408C0F800804C6814F4403FAB
:102680006BD03B4C266E46F001062666246E22F087
:10269000030604F001040094364C34440294A46808
:1026A000960700E059E04FEA16780CFA08F6B443B2
:1026B000B0F1904F04D0304EB04203D101261BE060
:1026C000002619E02D4EB04201D1022614E02C4E16
:1026D000B04201D103260FE02A4EB04201D10426B8
:1026E0000AE0294EB04201D1052605E0274EB0424E
:1026F00001D1062600E0072606FA08F62643029CCA
:10270000A660D9F800404E46D1F804809C435FEAA9
:10271000C82800D51C433460DAF800405646D1F88A
:1027200004809C435FEA882800D51C433460DBF8B2
:1027300000405E46D1F804809C435FEA883800D5AB
:102740001C433460DEF800407646D1F804809C4398
:102750005FEAC83800D51C433460521C0B681E4623
:10276000D3407FF41BAF05B000F012B8080401405D
:10277000001002400000014000040048000800482A
:10278000000C0048001000480014004800180048E1
:1027900030BCBDE8C08F0069084000D00120704700
:1027A0000AB181617047816270470000014880680A
:1027B000704700003C00002090F84120202A24D1DE
:1027C00090F84020012A20D0012280F840202422C5
:1027D00080F841200268136823F001031360026847
:1027E000136823F480531360026813680B4313606B
:1027F00001680A6842F001020A60202180F8411055
:10280000002180F84010084670470220704790F879
:102810004120202A22D190F84020012A1ED00122F6
:1028200080F84020242280F841200268136823F0B9
:10283000010313600268136823F4706343EA012103
:10284000116001680A6842F001020A60202180F8E4
:102850004110002180F84010084670470220704760
:10286000406C704790F841007047000070B504005C
:1028700004D094F84100002510B106E0012070BD9D
:1028800084F84050204600F045FA242084F84100A6
:102890002068016821F0010101606068216820F072
:1028A000706008612068816821F400418160E068FF
:1028B0000128A06830D040F4044021688860E068B6
:1028C0000228206841682AD021F400614160206814
:1028D0004168144A114341602068C16821F40041F5
:1028E000C160D4E904010843A16940EA01202168DC
:1028F000C860D4E9070108432168086020680168BE
:1029000041F0010101606564202084F841002563E5
:1029100084F84250002070BD40F40040CDE741F4FF
:102920000061D3E7008000022DE9F84F044690F8DB
:102930004100DDF828A01F4690468B4620287ED116
:1029400094F8400001287AD0012084F84000FFF775
:102950002DFF0646012200901923D103204602F0E4
:1029600067F9E0BB222084F84100102084F842007F
:1029700000256564C4F8248067856563618D3148EE
:10298000FF274FF080784FF00079FF2903D9278582
:102990003A46009039E0618D218500903AE0594631
:1029A000204602F02DF913E002F078F9B8B920685A
:1029B000406A616A0870606A401C6062208D401E37
:1029C00080B22085618D491E6185618D01B168B13C
:1029D000608D3246002851462046E5D100E002E0F5
:1029E00002F0B0F9D0B1012000F030B85346002217
:1029F00080212046009602F01BF90028F3D1608D5B
:102A0000FF2804D927853A4600954346C7E7608DDD
:102A10002085009594F828204B46C0E721682020A7
:102A2000C86121684A68084B1A404A6084F841002E
:102A300084F8425084F840500020D5E7FFE7022098
:102A4000D2E700000024008000E800FE18BCBDE8CA
:102A5000E08F00002DE9FF4F81B0044690F841005F
:102A6000DDF838B01F46904620287BD194F840000E
:102A7000012877D0012084F84000FFF797FE064632
:102A8000012200901923D103204602F0D1F800283A
:102A900053D1212084F84100102084F84200002501
:102AA0006564C4F8248067856563608D3A49FF27B3
:102AB0004FF080794FF0007AFF2802D927854B46E6
:102AC00005E0608D208500045346000C10D022687C
:102AD00098F800009062606A401C6062608D401E41
:102AE0006085208D401E2085401CC2B2009101E00F
:102AF000002200912046029902F082F814E000BF03
:102B000002F04BF9C8B9606A216800788862606A8F
:102B1000401C6062608D401E6085208D401E80B22A
:102B20002085618D01B160B1608D32460028594623
:102B30002046E5D102F006F9E0B1012005B000F031
:102B40002FB85B46002280212046009602F070F8E4
:102B50000028F2D1608DFF2805D927853A464B46DB
:102B60000095C7E716E0608D2085009594F8282031
:102B70005346BFE721682020C86121684A68074B97
:102B80001A404A6084F8410084F8425084F840506A
:102B90000020D3E70220D1E70020008000E800FEFB
:102BA00030BCBDE8C08F00002DE9FF4F83B0044664
:102BB000DDE9108790F84100DDF848909A46934689
:102BC000202874D15FEA080014D09FB194F8400027
:102BD00001286CD0012084F84000FFF7E7FD06468D
:102BE000012200901923D103204602F021F8002889
:102BF00071D103E04FF4007060646CE0222084F82F
:102C00004100402084F8420000256564C4F8248017
:102C100067856563CDE9009653465A462046049978
:102C200001F0BCFF10B184F8405054E0618D35488C
:102C3000FF274FF080784FF0007AFF2904D92785CD
:102C40003A464346009005E0618D2185009094F856
:102C5000282053462046049901F0D2FF4B4600221B
:102C600004212046009601F0E3FFA0BB2068406AE3
:102C7000616A0870606A401C6062208D401E81B2EB
:102C80002185608D401E6085608DD8B1D1B94B46DD
:102C9000002280212046009601F0CAFFD8B9608D3D
:102CA000FF2805D927853A464346009506E026E0E9
:102CB000608D2085009594F828205346204604997D
:102CC00001F09EFF608D0028C8D13246494620465B
:102CD00002F038F818B1012007B000F017B82168E9
:102CE0002020C86121684A68074B1A404A6084F86E
:102CF000410084F8425084F840500020ECE7022064
:102D0000EAE700000024008000E800FE30BCBDE8D7
:102D1000C08F000010B5A8B00446142122A8FDF70A
:102D200077FC88216846FDF773FC184920688842C3
:102D300029D14020009000201490684600F008F946
:102D400008B1FFF734FA124CE06C40F00200E06486
:102D5000E06C22A900F0020027904FF4407022900E
:102D600012202390012024900320259004202690F7
:102D70000848FFF701FCA06D40F40010A065A06DAD
:102D800000F40010279028B010BD0000005400404F
:102D90000010024000040048024881680278114493
:102DA000816070473C00002010B50024032000F033
:102DB00081F8002000F008F808B1012401E000F0DB
:102DC00025F8204610BD000070B50E4E05460024C3
:102DD000307898B14FF47A71B1FBF0F00A49096884
:102DE000B1FBF0F000F0C6FE40B9102D06D2002273
:102DF0002946501E00F03EF8756000E00124204690
:102E000070BD00003C00002048000020094808B5C3
:102E1000016E41F001010166016E01F001010091B6
:102E2000816D41F080518165806D00F0805000908F
:102E300008BD00000010024000280DDB00F01F025A
:102E4000012191404009800000F1E020C0F880118C
:102E5000BFF34F8FBFF36F8F7047002809DB00F07F
:102E60001F02012191404009800000F1E020C0F8DC
:102E700000117047F0B40E4B1B680C46C3F30223DD
:102E8000C3F10705042D00D90425191D072901D216
:102E9000002300E0DB1E012606FA05F1491E214051
:102EA00099409E40761E16403143F0BC04F03EBB74
:102EB0000CED00E0064900F0070208684FF6FF033A
:102EC000184040EA0220034A10430860704700009F
:102ED0000CED00E00000FA051649B0F5007F086827
:102EE000C0F3412009D0022805D0086820F4C06052
:102EF00040F480600860002070470128FBD008681B
:102F000020F4C06040F4007008600B483222006872
:102F100050430A4AB0FBF2F0401C00E0401E4A69F0
:102F2000520501D50028F9D148694005E3D50320B1
:102F300070470000007000404800002040420F0031
:102F40000248006800F4C060704700000070004054
:102F50002DE9F84F044600270088E54D3E4601055F
:102F600004F1200B1DD5606E78B1B0F5800F11D043
:102F7000B0F5000F04D0B0F5400F22D001270FE0CC
:102F8000E86840F48030E8601BE00021201D03F079
:102F900001F903E00021584603F092F9070010D030
:102FA0003E462088C00426D5A06EC0B1B0F1807F17
:102FB0001AD0B0F1007F0DD0B0F1407F19D00127B9
:102FC00018E0D5F88800616E20F440000843C5F889
:102FD0008800E6E7E86840F48030E86009E0002116
:102FE000201D03F0D7F803E00021584603F068F9EC
:102FF0000746F7B13E46206880033AD5A86D4FF0EA
:103000000008C00009D4A86D40F08050A865A86DE4
:103010004FF0010800F080500090DFF8D8A2DAF8F5
:10302000001041F48071CAF80010FFF7BFFB814621
:1030300010E0D5F88800A16E20F040700843C5F874
:103040008800D8E7FFF7B2FBA0EB0900022801D9FE
:10305000032705E0DAF80000C005F3D5002F7CD087
:103060004FEA0706B8F1000F03D0A86D20F080509A
:10307000A8652078C00707D0D5F88800A16B20F09C
:1030800003000843C5F888002078800707D5D5F8E5
:103090008800E16B20F00C000843C5F88800207818
:1030A000400707D5D5F88800216C20F03000084390
:1030B000C5F888002078000707D5D5F88800616C2E
:1030C00020F0C0000843C5F888002078C00607D566
:1030D000D5F88800A16C20F440700843C5F888003A
:1030E0002078800607D5D5F88800E16C20F4406090
:1030F0000843C5F888002088800507D5D5F88800E2
:10310000E16D20F440200843C5F888002088400580
:1031100007D5D5F88800216E20F440100843C5F883
:1031200088002078400607D5D5F88800216D20F466
:1031300040500843C5F888002078000607D5D5F828
:103140008800616D20F440400843C5F8880020885D
:10315000C00509D5D5F8880000E01CE0A16D20F479
:1031600040300843C5F8880020884FF0006780048D
:103170004FF080684FD5D5F88800E16E20F04060B0
:103180000843C5F88800E06EB8423CD1E86840F4D6
:103190008010E8603FE0D5F8900010F4407015D042
:1031A000D4F88410814211D0D5F89000D5F8901051
:1031B00020F4407041F48031C5F89010D5F890109B
:1031C00021F48031C5F89010C5F89000C00710D0E8
:1031D000FFF7ECFA074641F2883906E0FFF7E6FA16
:1031E000C11B494501D903263CE7D5F8900080076B
:1031F000F4D5D5F89000D4F8841020F4407008433A
:10320000C5F890002EE7404505D10121201D02F0B0
:10321000C1FF00B106462068000317D5D5F8880025
:10322000216F20F040600843C5F88800206FB84245
:1032300004D1E86840F48010E86007E0404505D11B
:103240000121201D02F0A6FF00B1064620684003C0
:1032500017D5D5F88800616F20F040600843C5F8A5
:103260008800606FB84204D1E86840F48010E860DC
:1032700007E0404505D10121201D02F08BFF00B180
:103280000646208840041AD5D5F88800A16F20F0A2
:1032900040500843C5F88800A06FB0F1805F03D0AC
:1032A000B0F1005F05D00AE00221201D02F072FF9C
:1032B00003E00221584603F003F800B106462088D7
:1032C000000407D5D5F88800E16F20F0804008435E
:1032D000C5F888002068C00307D555F8880FD4F8D2
:1032E000801020F0004008432860304600F004B809
:1032F000001002400070004018BCBDE8E08F0000E4
:103300002DE9F0470F4605006BD0494E306800F0BC
:103310000700B84209D2306820F007003843306017
:10332000306800F00700B8425BD12878414C800734
:103330000AD5A868A16801F0F001884204D9A16803
:1033400021F0F0010143A1602878C0072CD0686803
:10335000032811D0022812D0216898B1490500290C
:103360003FDAA16821F003010143A160FFF71EFAD3
:10337000804641F2883910E021688901EFE7216831
:103380008903ECE78907EAE7FFF710FAA0EB0801E9
:10339000494502D90320BDE8F087A068696800F0BC
:1033A0000C00B0EB810FEFD1287880070AD5A86810
:1033B000A16801F0F001884204D2A16821F0F00177
:1033C0000143A160306800F00700B8420BD93068B3
:1033D00020F0070038433060306800F00700B84242
:1033E00001D00120D7E72878400705D5A068E96813
:1033F00020F4E0600843A0602878000706D5A068A4
:10340000296920F4605040EAC100A06000F03EF855
:10341000A168094AC1F30311515C01F01F01C840C2
:103420000649086006480068BDE8F047FFF7CCBCD5
:10343000002002400010024054950008480000207F
:10344000400000200548064900688968054AC1F324
:103450000221515C01F01F01C84070474800002064
:1034600000100240949500080548064900688968E4
:10347000054AC1F3C221515C01F01F01C8407047E9
:1034800048000020001002409495000870B52549BE
:10349000002318468A68CC6812F00C0204F0030678
:1034A000214C4FEA640509D00C2A05D0042A32D0F9
:1034B000082A00D1284670BD012E10D10B681B07C9
:1034C00004D4D1F89430C3F3032302E00B68C3F3B0
:1034D0000313164E56F82330DAB10C2AEBD1C86824
:1034E00000F00300022818D0032818D01846CA6834
:1034F000CB68C2F30212C3F306234343521CB3FB4F
:10350000F2F2C868C0F34160401C4000B2FBF0F02A
:1035100070BD184670BD204670BD2046E7E72846BE
:10352000E5E70000001002400024F4006495000864
:103530002DE9F84304006FD0FD4DA86800F00C069B
:10354000E86800F003072078C00664D576B10C2E39
:1035500001D1012F0AD0A069002828687AD040F054
:1035600001002860FFF722F980465DE028688007A7
:1035700002D5A0690028DED0216A2868000703D59B
:10358000286800F0F00004E0D5F89400F02202EA88
:103590001010814216D9084602F016FF00283BD1D0
:1035A000286840F0080028602868216A20F0F000B0
:1035B000084328606868E16920F47F4040EA012000
:1035C000686016E0286840F0080028602868216AD2
:1035D00020F0F000084328606868E16920F47F402B
:1035E00040EA0120686026B9206A02F0EDFE00285A
:1035F000D5D1FFF74BFFA968CE4AC1F30311515C47
:1036000001F01F01C840CC490860CC480068FFF7B2
:10361000DBFB00287ED12EE0CAE000BFFFF7C6F832
:10362000A0EB0800022876D828688007F6D528681D
:1036300040F0080028602868216A20F0F000084364
:1036400028606868E16920F47F4040EA01206860F2
:1036500011E0FFE720F001002860FFF7A7F880469F
:1036600006E000BFFFF7A2F8A0EB08000228DAD8B6
:1036700028688007F6D42078C00740D0082E18D0DC
:103680000C2E01D1032F14D06068B0F5803F17D005
:10369000B0F5A02F286817D020F480302860286863
:1036A00020F4802028606068E0B1FFF77FF8804652
:1036B00014E02868800322D56068002878D01EE0D6
:1036C000286840F48030EDE740F480202860F7E778
:1036D000FFF76CF8A0EB08006428A4D828688003E2
:1036E000F6D50CE0FFF762F8804605E0FFF75EF8DC
:1036F000A0EB0800642896D828688003F6D42078C8
:1037000080073BD5042E11D00C2E01D1022F0DD0F5
:10371000E06801E086E1D6E0002828681ED040F489
:1037200080702860FFF742F807460CE028684005E3
:103730000CD5E0680028C1D008E000BFFFF736F8DC
:10374000C01B022893D828684005F7D56868217CFB
:1037500020F0F85040EA016068600FE020F48070CB
:103760002860FFF723F8074605E000BFFFF71EF8C3
:10377000C01B0228B1D828684005F7D4207800077C
:1037800029D560690028D5F8940012D040F00100D6
:10379000C5F89400FFF70AF8074604E0FFF706F8BB
:1037A000C01B022899D8D5F894008007F6D512E0FE
:1037B00000E120F00100C5F89400FEF7F7FF07468E
:1037C00005E000BFFEF7F2FFC01B02287BD8D5F84A
:1037D00094008007F6D42078400766D5A86D0027AE
:1037E000C00008D4A86D40F08050A865A86D0127DE
:1037F00000F08050009052480168C90512D4016859
:10380000814641F480710160FEF7D0FF804605E0FB
:10381000FEF7CCFFA0EB0800022854D8D9F800002E
:10382000C005F5D5A068012816D00528D5F8900068
:1038300017D020F00100C5F89000D5F8900020F0D6
:10384000040000BFC5F89000A06841F28839C0B1FB
:10385000FEF7ACFF80460FE0D5F8900040F0010085
:10386000F0E740F00400C5F89000F5E7FEF79EFF92
:10387000A0EB0801494526D8D5F890008007F5D57A
:103880000EE0FEF793FF804606E000BFFEF78EFFD6
:10389000A0EB0801494516D8D5F890008007F5D46B
:1038A0001FB1A86D20F08050A865A06AF0B302286F
:1038B0000AD00C2E7ED0286820F080702860FEF799
:1038C00075FF0446B0E0ACE0E868E26A00F003018E
:1038D000914229D1216B00F0700209011039914207
:1038E00022D1626B00F4FE41B1EB022F1CD1A26B1E
:1038F00000F40031072A01D0012200E000229142A9
:1039000012D1A18F00F4C00249084905A1F50011A8
:10391000914209D194F8401000F0C060490849066E
:10392000A1F1007181425ED00C2E0BE072E000002C
:10393000001002405495000848000020400000207C
:103940000070004079D02868400176D42868C00013
:1039500073D4286820F080702860FEF727FF0646A1
:1039600005E000BFFEF722FF801B022859D8286817
:103970008001F7D4D4E90B016FF00F0202EB0111C3
:103980000843A18F5204490802EB4151626B41EA9E
:103990000221084394F840104FF07E42490802EBA0
:1039A00041610843A16B090940EA4140E968244AA2
:1039B000114000E041E00843E860286840F0807072
:1039C0002860E86840F08070E860FEF7EFFE04468B
:1039D00005E000BFFEF7EAFE001B022821D8286898
:1039E0008001F7D527E02868800124D4286840F0BA
:1039F00080702860E86840F08070E860FEF7D6FECE
:103A0000044604E0FEF7D2FE001B022809D828680D
:103A10008001F7D50FE000BFFEF7C8FE001B0228AB
:103A200002D90320BDE8F88328688001F4D4E8684F
:103A300004490840E8600020F4E70120F2E70000B4
:103A40008C809DF9FCFFEEFE10B504004FF00100E4
:103A500048D094F8210028B9002084F8200020469E
:103A600000F04AF8022084F821002068C168C943A8
:103A7000C90638D5CA2141622168532048622046D0
:103A800002F0E0FCB0B9206881681A4A11408160F8
:103A9000216888686268A369104322691A43104349
:103AA00088602168E068086120680169228941EA2C
:103AB00002410161204602F0E9FC00280DD1216895
:103AC000CA6C22F00302CA646269E16941EA020138
:103AD0002268D36C41EA0301D16422684FF0FF01F0
:103AE000516202D010BD4FF000004FF0010184F888
:103AF000211010BDBFFF8FFF10B5A2B00446882172
:103B00006846FCF785FD0B492068884210D14FF4C8
:103B100000300090001221906846FFF719FA08B1B2
:103B2000FEF745FB044850F8901F41F40041016046
:103B300022B010BD002800400010024070B50446BD
:103B40000B482168C860FEF731FE05464FF47A76CF
:103B500007E000BFFEF72AFE401BB04201D9032058
:103B600070BD2068C0688006F4D5002070BD0000DC
:103B70005FFF030010B5401EB0F1807F01D301202C
:103B800010BD4FF0E02460610F21601703F0CEFC00
:103B90000020A06107202061002010BD7047704701
:103BA0007047000030B590F83C20012A3AD001223D
:103BB00080F83C20CA688B6822F440721A434B6834
:103BC00022F480621A430B6822F400621A430B69E4
:103BD00022F480521A434B6922F400521A438B6A32
:103BE00022F480421A430B8B22F4702242EA0342F1
:103BF0000D4D03680024AB4202D00C4DAB420CD1FA
:103C00008D8C22F4700242EA0552CD6922F0807256
:103C10002A43096A22F000720A435A6480F83C4041
:103C2000002030BD022030BD002C01400034014096
:103C3000F0B590F83C20012A39D0012480F83C40AE
:103C4000022280F83D20026853689568194E1A4F89
:103C5000B24201D0BA4204D123F4700C4B6843EA5B
:103C60000C0323F0700C0B6843EA0C0353600268EA
:103C7000B24210D0B2F1804F0DD0104B9A420AD010
:103C80000F4B9A4207D00F4B9A4204D0BA4202D04F
:103C90000D4B9A4204D1896825F080031943916045
:103CA00080F83D40002180F83C100846F0BD02201D
:103CB000F0BD0000002C0140003401400004004031
:103CC00000080040000C00400040014010B5040016
:103CD00003D094F83D0010B107E0012010BD002092
:103CE00084F83C00204600F023F8022084F83D00D0
:103CF000211D206802F008FE012084F8480084F8A5
:103D00003E0084F83F0084F8400084F8410084F8C5
:103D1000420084F8430084F8440084F8450084F8A5
:103D2000460084F8470084F83D00002010BD0000E4
:103D300008B5174A01681748914211D1816D41F0C9
:103D400002018165806D002200F0020000901146A2
:103D50001D20FFF78FF8BDE808401D20FFF77DB854
:103D60000D4A914207D1816D41F010018165806D4E
:103D700000F0100009E0094A914207D1016E41F4B8
:103D800080310166006E00F48030009008BD0000B4
:103D900000040040001002400010004000400140BC
:103DA00090F83D10012901D001207047022180F8D0
:103DB0003D100168CA6842F00102CA6000681149FA
:103DC000884211D0B0F1804F0ED00F4988420BD0FD
:103DD0000E49884208D00E49884205D00D498842D4
:103DE00002D00D49884207D181680C4A114006294A
:103DF00006D0B1F5803F03D0016841F001010160B8
:103E000000207047002C01400004004000080040E2
:103E1000000C004000340140004001400700010058
:103E200070B5044690F83C000025012817D0012603
:103E300084F83C60022084F83D00226890682F4B93
:103E4000184020F47F4090600868502838D00DDC7E
:103E500020284FD005DC90B3102811D14AE0022071
:103E600070BD302846D040280AD13BE060282FD0D2
:103E700070280DD0B0F5805F03D0B0F5005F12D090
:103E8000012584F83D60002084F83C00284670BD80
:103E9000CB68D1E90121206802F0A3FD2068816888
:103EA00041F0770109E0CB68D1E90121206802F0F7
:103EB00098FD2068816841F480418160E1E719E064
:103EC000CA684968206802F027FF5021206806E090
:103ED000CA684968206802F030FF6021206802F05B
:103EE0008AFDCEE7CA684968206802F015FF4021C4
:103EF0002068F4E7226801461046F0E788FFFEFFDD
:103F000070472DE9F04104460068C66805694FF026
:103F10000007A90713D5B10711D5F91E01610120CA
:103F20002077206880698007204602D0FFF7E8FFED
:103F300004E000F089F8204600F04BF92777680785
:103F400016D5700714D521686FF0040008610220AF
:103F500020772068806910F4407F204602D0FFF768
:103F6000CFFF04E000F070F8204600F032F9277728
:103F7000280715D5300713D521686FF008000861B0
:103F8000042020772068C0698007204602D0FFF710
:103F9000B7FF04E000F058F8204600F01AF9277740
:103FA000E80616D5F00614D521686FF010000861F8
:103FB000082020772068C06910F4407F204602D096
:103FC000FFF79EFF04E000F03FF8204600F001F903
:103FD0002777E80708D0F00706D021686FF00100C6
:103FE0000861204600F078F9280608D5300606D585
:103FF00021686FF0800008612046FFF7D0FDE805DA
:1040000008D5300606D521686FF480700861204617
:10401000FFF7C4FD680608D5700606D521686FF065
:1040200040000861204600F069F9A8060AD5B006EC
:1040300008D521686FF0200008612046BDE8F041F6
:10404000FFF7AEBDBDE8F081704770B5044690F84B
:104050003C0000260D4601280BD0012084F83C00CE
:104060000C2A4AD007DC82B1042A20D0082A06D1C3
:1040700031E0022070BD102A53D0142A63D00126EB
:10408000002084F83C00304670BD206802F0BCFC83
:104090002068816941F0080181612068816921F00F
:1040A00004018161206881692A69114311E0206857
:1040B00002F0F8FC2068816941F4006181612068A8
:1040C000816921F480618161206881692A6941EAFE
:1040D00002218161D4E7206802F02CFD2068C169CB
:1040E00041F00801C1612068C16921F00401C1618A
:1040F0002068C1692A69114311E0206802F062FD5D
:104100002068C16941F40061C1612068C16921F47E
:104110008061C1612068C1692A6941EA0221C161E7
:10412000AEE7206802F088FD2068416D41F008018B
:1041300041652068416D21F0040141652068416DB1
:104140002A69114311E0206802F0AEFD2068416D3C
:1041500041F4006141652068416D21F48061416551
:104160002068416D2A6941EA0221416588E710B55E
:10417000040003D094F83D0010B107E0012010BD09
:10418000002084F83C00204600F022F8022084F849
:104190003D00211D206802F0B7FB012084F8480093
:1041A00084F83E0084F83F0084F8400084F8410021
:1041B00084F8420084F8430084F8440084F8450001
:1041C00084F8460084F8470084F83D00002010BDC4
:1041D0007047704730B50446022269B1042912D0F5
:1041E000082917D00C291CD0102921D094F843009D
:1041F000012824D0012030BD94F83E000128F9D1D7
:1042000084F83E201DE094F83F000128F2D184F8A4
:104210003F2016E094F840000128EBD184F84020BC
:104220000FE094F841000128E4D184F8412008E02F
:1042300094F842000128DDD184F8422001E084F89E
:1042400043200122206802F0BFFB1A4A20681A4B63
:104250001A49904209D0984207D0884205D0184D9B
:10426000A84202D0174DA84203D1456C45F4004541
:104270004564206890420FD0B0F1804F0CD0124AB4
:10428000904209D0114A904206D0114A904203D080
:10429000984201D0884207D181680E4A1140062910
:1042A00006D0B1F5803F03D0016841F00101016003
:1042B000002030BD002C014000340140004001408E
:1042C0000044014000480140000400400008004054
:1042D000000C00400700010000680649884206D132
:1042E00005494888B0F5967F02D0401C4880704749
:1042F0000020FBE7000400400400002070477047E6
:10430000704770B50446C06FD4F880602168896832
:104310004FF01005090618D5212816D1206808305D
:1043200050E8001F21F0800140E80012002AF5D17A
:10433000206F38B1FDF73DFF20B1206FFDF785FFFD
:10434000202821D0204602F06CFE206880684006BC
:1043500018D5222E16D12068083050E8001F21F011
:10436000400140E80012002AF5D1606F38B1FDF736
:1043700020FF20B1606FFDF768FF202804D02046A1
:1043800002F029FE002070BDC4F88450032070BDE7
:10439000704700002DE9F04102680446D0691168B9
:1043A000936840F60F0528424FF000054FF00206D3
:1043B00005D187067ED58F067CD5A16E2BE1DFF86F
:1043C00084C203F0010701EA0C0C57EA0C0C71D00F
:1043D0005FEAC07C0CD05FEAC15C09D54FF0010CEC
:1043E000C2F820C0D4F8842042F00102C4F884202E
:1043F000820709D5DA0707D022681662D4F884202C
:1044000042F00402C4F8842042070AD5DA0708D033
:10441000236804221A62D4F8842042F00202C4F80D
:10442000842002070CD501F020023A4308D023680B
:1044300008221A62D4F8842042F00802C4F88420CA
:1044400002050BD54A0109D523684FF400621A62B0
:10445000D4F8842042F02002C4F88420D4F88420C8
:10446000002A36D0800605D5880603D5A16E09B18D
:1044700020468847D4F8840021688968490602D418
:1044800010F0280F27D0204602F0A5FD2068806894
:1044900040061BD52068083050E8001F21F040017D
:1044A00040E80012002AF5D1606F78B16649816357
:1044B000606F00E015E0FDF7A1FE002809D0606FF5
:1044C000816B00E02046BDE8F04108472046FFF739
:1044D0005FFFBDE8F0812046FFF75AFFC4F8845023
:1044E000F7E7D4F860C02027BCF1010F7ED15FEA66
:1044F000C06C7FD55FEAC16C7CD51020106220684B
:104500008068400643D5616F086840680004000C6D
:10451000DFD0B4F858208242DBD9A4F85A000868EA
:10452000006880062BD4216851E8000F20F48070C9
:1045300041E80002002AF6D12068083050E8001F48
:1045400021F0010140E80012002AF5D1206808306E
:1045500050E8001F21F0400140E80012002AF5D188
:10456000C4F880702566206850E8001F21F0100113
:1045700040E80012002AF6D1606FFDF71AFE666669
:10458000B4F85800B4F85A10401A81B22CE0B4F8CC
:104590005800B4F85A10401A81B2B4F85A000028F2
:1045A00097D0002995D0226852E8000F20F490702F
:1045B00042E80003002BF6D12068083050E8002FB5
:1045C00022F0010240E80023002BF5D1C4F88070EE
:1045D0002566A566226852E8000F20F0100042E828
:1045E0000003002BF6D16666204600E002E0FFF7EC
:1045F00086FE6EE7C60209D55B0207D54FF4801030
:1046000010622046BDE8F041FFF77ABE020606D5EB
:104610000A0604D5E16E00297FF454AF59E740063D
:10462000E7D54806E5D52046026852E8001F21F08C
:10463000400142E80013002BF6D1C767C56600F0C1
:1046400055F946E720010004CF6E000810B50400BC
:1046500002D0E06F10B107E0012010BD002084F807
:104660007800204600F026F82420E06720680168E2
:1046700021F001010160606A10B1204602F06FFB79
:10468000204602F0DBFC0128E7D02068416821F4D5
:10469000904141602068816821F02A018160206892
:1046A000016841F0010101602046BDE8104002F0C0
:1046B000BABB00002DE9F04FA9B00746142122A88B
:1046C000FBF7A6FF88216846FBF7A2FF6949386817
:1046D000694D002402264FF003084FF0800A4FF086
:1046E000010988423ED12020009080011390684645
:1046F000FEF72EFC08B1FDF75AFDE86D40F0010011
:10470000E865E86D00F001002790E86C40F00400D7
:10471000E864E86C22A900F004002790404681E894
:1047200041020820CDE925805448FDF725FF554D6D
:10473000534828600420C5E90104C5E9034A6C61B7
:10474000AC61EC6128462C62FDF7DEFD08B1FDF797
:104750002EFD7D67002201214620AF62FEF78AFB15
:10476000462040E048494FF0070B884240D1684658
:10477000CDF800900E94FEF7EBFB08B1FDF717FDA6
:10478000286E40F480402866286E00F48040279010
:10479000E86C40F00200E864E86C22A900F0020036
:1047A0002790C02081E84102CDE9258B3748FDF7ED
:1047B000E3FE344D364848352860C5E90164C5E953
:1047C000034A6C61AC61EC6128462C62FDF79CFDEC
:1047D00008B1FDF7ECFC7D67002201212520AF62C6
:1047E000FEF748FB2520FEF738FB29B000F054B84F
:1047F00028498842F9D1009668460F94FEF7A8FB35
:1048000008B1FDF7D4FCA86D40F40030A865A86D90
:1048100000F400302790E86C40F00100E864E86C98
:1048200022A900F0010027900C2081E84102CDE987
:10483000258B4FF09040FDF79FFE124D14489035A8
:1048400014302860C5E90164C5E9034A6C61AC61B4
:10485000EC6128462C62FDF757FD08B1FDF7A7FC77
:104860007D67002201212620AF62FEF703FB262090
:10487000B9E7000000800040001002400008004836
:1048800080040240440E002000380140000400482B
:10489000580002400044004030BCBDE8C08F00001A
:1048A00030B4D0F88030202B02D0022030BC7047CA
:1048B000A9B1A2B1002303660A4C0368A3420BD03E
:1048C0005B681B0208D5046854E8003F43F080632E
:1048D00044E80035002DF6D130BC02F0D3BC0120F5
:1048E000E4E7000000800040704770477047000018
:1048F0000146014800F07EBA8C11002008B58020E6
:10490000FFF7F6FF0DA002220068009069461046EE
:1049100000F076F80F20FDF78FFD10208DF80000D5
:1049200000208DF8010002226946104600F068F868
:10493000BDE808400A20FDF77FBD000080000000B0
:104940002DE9F74F204F82B001269346DFF874A07F
:104950003E701E4D4FF4FA784FF47A746FF00A09E6
:104960000AE05046FDF77CFF042801D085F800904E
:10497000404603F043FA40B9012302AA8021504681
:104980000094FEF767F80028EBD13E706FF00B073C
:1049900046460AE05046FDF763FF042800D02F701A
:1049A000304603F02BFA002808D15B4600948121A1
:1049B0005046039AFDF7B8FF0028EBD105B000F090
:1049C00007B800008C1100201C0000201B000020F4
:1049D00030BCBDE8C08F08B5022269460120FFF750
:1049E000AFFFBDF8000040BA08BD08B50222694615
:1049F0000020FFF7A5FFBDF8000040BA08BD000089
:104A00002DE9FC410023164C01938DF80400022A85
:104A100024D108788DF80500487812498DF80600F1
:104A2000012008706FF00C060F4F4FF4FA784FF426
:104A30007A750AE02046FDF713FF042800D03E7087
:104A4000404603F0DBF9002808D1032301AA8021A6
:104A500020460095FDF7FEFF0028EBD1BDE8FC8164
:104A60008C1100201C0000201B000020FEE70168C4
:104A70008A69D243920701D400228A620068816960
:104A8000C943C90703D0816941F0010181617047C1
:104A90002DE9F047044600688946002681693546BD
:104AA0001746C9064FF0200841D51021C1612FE0FB
:104AB000B9F1FF3F2CD0FDF779FEC11B494502D863
:104AC000B9F1000F24D12068416894F8422001F424
:104AD00080418369DB431B0415D4B1F5804F12D0AC
:104AE000202A10D0416841F480414160FDF75EFE0C
:104AF000074608E0FDF75AFEC01B192803D945F008
:104B00002005012604E020688069C0438006F1D4B6
:104B100020688069C043800602D5002EC8D003E01B
:104B200016B92168C1F81C8045F0040501262168EA
:104B30008869C20505D54FF4807245F00105CA6148
:104B40000126410509D522684FF4806145F008052A
:104B5000D1610126800502D40AE0800507D52168CD
:104B60004FF4007045F00205C861012600E086B1EF
:104B70002046FFF77CFF54F8240B4168064A114099
:104B80004160206A2843206284F81D800020A077BD
:104B900020773046BDE8F08700E800FE2DE9F843B5
:104BA00004461646DDE9089714489846DAB20090A4
:104BB0000023204600F024F83A464946204600F0FB
:104BC000ECF8B8B9F5B2B8F1010F08D02168300A95
:104BD00088623A464946204600F0DFF850B920681E
:104BE00085624B46002240212046009700F020F8C5
:104BF000002800D00120BDE8F883000000200080DC
:104C000010B5C1F3090141EA02410268029C19434F
:104C10002143506821F000414FF4806303EA54536C
:104C2000024C234398430843506010BDFF63FF03C9
:104C30002DE9F0411E4617460D460446DDF8188062
:104C400020E0701C1ED0FDF7B1FDA0EB0800B042C3
:104C500000D8BEB92068806935EA000010D0002075
:104C6000B8420FD154F8440F40F0200044F8040932
:104C7000202060700020A07020700120BDE8F0812D
:104C80000120EDE72068806935EA000004D00020AB
:104C9000B842D6D00020F1E70120F9E72DE9F04134
:104CA000202690460F460446002541E042463946FC
:104CB0002046FFF7EDFE10BB20688069C0438006E8
:104CC0001ED420688169C943490701D4218D71BB75
:104CD0008169C943C90604D41021C16104206064FC
:104CE00000E065642068C66120684168144A11408C
:104CF000416084F8416084F8425084F8405013E0E9
:104D0000FDF754FDA0EB0800B84200D887B9206831
:104D10008069C04340070BD554F8440F40F0200091
:104D200044F80409667025700120BDE8F08104E0B4
:104D300020688069C0434007B8D40020F5E7000030
:104D400000E800FE70B516460D4604461EE03246E9
:104D500029462046FFF79CFE08B1012070BDFDF7F3
:104D600025FD801BA84200D885B920688069C04312
:104D700080060BD554F8440F40F0200044F8040995
:104D8000202060700020A0702070E6E72068806915
:104D9000C0438006DBD4002070BD70B516460D46BA
:104DA000044620E0324629462046FFF771FE08B14E
:104DB000012070BD681C16D0FDF7F8FC801BA842CE
:104DC00000D885B920688069C04380070BD554F8A6
:104DD000440F40F0200044F80409202060700020B7
:104DE000A0702070E4E720688069C0438007D9D4B0
:104DF000002070BD70B50D460446FDF733FD60B967
:104E00000A4820600120E0600948606000202061BD
:104E1000A061E0612062A56060612046FDF726FD8B
:104E20002046BDE870400021FDF7C6BC005400409C
:104E3000BC7D701003780022012B0CD04378012B2D
:104E400008D142700A7802201AB1012A01D0032A3F
:104E500000D1087070470270087838B1012803D07B
:104E6000022801D00328F5D10A7070470120F0E72D
:104E70002DE9F04104461F4616460D462A2000F053
:104E8000ADF9200A00F028FAE0B200F025FA344427
:104E9000601EC11700EB1166C6F3072000F01CFA74
:104EA000641E2046C0B200F017FA2B2000F096F9DD
:104EB000280A00F011FAE8B200F00EFAEC19601EB0
:104EC000C11700EB1165C5F3072000F005FA641E59
:104ED0002046C0B200F000FABDE8F0412C2000F0FE
:104EE0007DB900002DE9F04107464FF4A07600217E
:104EF0003346F0220846FFF7BBFF0A4C0025E58049
:104F00002581384600F0A0F92089401C80B220811C
:104F1000B042F6D3E088401C80B2E080F028EFD3A6
:104F2000BDE8F0812C0000202DE9F0411F46154618
:104F30001346FFF79DFF0B4C002666800DE0A68010
:104F400005E0384600F080F9A088401CA080A088C9
:104F5000A842F6D36088401C60806088A842EED3E7
:104F6000BDE8F0812C0000202DE9F0470E460746F1
:104F70001C46981B83B21546D01B82B23846DDF81A
:104F80002090FFF775FFDFF83C80A8F80A7013E067
:104F9000A8F80C6007E0484600F056F9B8F80C0095
:104FA000401CA8F80C00B8F80C00A042F3D3B8F8E5
:104FB0000A00401CA8F80A00B8F80A00A842E7D383
:104FC000BDE8F0872C00002070B5144D0421284660
:104FD000FDF7E1FB124C012805D101212846FDF720
:104FE000DAFB012802D00020207070BD0120207063
:104FF00001F0CAFA02F009FA40F2DC5001F030FC8C
:1050000000F0D0F84BF6FE60FFF76CFFBDE8704093
:105010001F23782103A21E2000F09FB8000C004837
:105020003A00002053746172742050726F6772618D
:105030006D6D696E67204E6F770000002DE9F05F9F
:105040008346DDE90A408A46002699469046A3EB4E
:105050000A07A2EB0B05012811D0042824D1BBB20A
:10506000AAB251465846FFF703FF7D434FEAD508E1
:1050700005F007094DF2DB6A40F6932B27E0BBB23F
:10508000AAB251465846FFF7F3FE56460AE05D467F
:1050900005E000BF34F8020B00F0D6F86D1C454562
:1050A000F8D3761C4E45F2D300F028B827780025B7
:1050B000380601D4504600E0584600F0C5F878069E
:1050C0006D1C070EEDB2082DF2D3641C761C46450C
:1050D000ECD300270FE026780025300601D4504697
:1050E00000E0584600F0B0F870066D1C060EEDB2F8
:1050F000082DF2D37F1C4F45EDD3D5E730BCBDE87A
:10510000C09F00002DE9F05F8946203A8246104991
:10511000D0B29B46002401EB001800BF18F80460D1
:10512000002509EB0407F00707D00AEB0500B9B228
:1051300080B25B460122FFF7F7FE6D1C7608EDB2E8
:10514000082DF0D3641CE4B2102CE7D300F002B8B1
:10515000CA83000830BCBDE8C09F2DE9F0479946DE
:1051600016460D4604464FF4A0774FF6FF7814E03C
:10517000F02C02D900241035ADB2BD4204D9002470
:1051800025464046FFF7AEFE32784B46294620467C
:10519000FFF7B8FF0834A4B2761C30780028E7D1B6
:1051A000BDE8F0871CB54BF6FE60FFF79BFE4DF2A5
:1051B000DB60002100906923F0220846FFF7D4FE4F
:1051C00004210548CDE90001CC23F022692100200B
:1051D000FFF734FF1CBD0000BA8900082DE9F0413B
:1051E000174C8046002208212046FDF7D9FA4FF4DB
:1051F0000055002229462046FDF7D2FA6E114FF0E5
:105200009047002231463846FDF7CAFA0D484169F9
:10521000C9B24161426942EA082242610122314633
:105220003846FDF7BDFA012229462046FDF7B8FAB7
:105230002046BDE8F04101220821FDF7B1BA000087
:1052400000040048001000482DE9F04104461E48C3
:105250001E4D0122048008212846FDF7A1FA4FF4D3
:105260000056002231462846FDF79AFA77114FF092
:105270009048002239464046FDF792FA14484169A9
:10528000C9B24161E1B24FF6FF7202EA01214269FF
:105290000A4342610F480168C9B20160026804F420
:1052A0007F410A430260012239464046FDF778FA01
:1052B000012231462846FDF773FA2846BDE8F04141
:1052C00000220821FDF76CBA2C00002000040048E1
:1052D00000100048140C00482DE9F041174C80469E
:1052E000012208212046FDF75BFA4FF40055002209
:1052F00029462046FDF754FA6E114FF090470022E0
:1053000031463846FDF74CFA0D484169C9B2416152
:10531000426942EA08224261012231463846FDF7DD
:105320003FFA012229462046FDF73AFA2046BDE819
:10533000F04101220821FDF733BA000000040048C3
:105340000010004870B50C4C102520680562022042
:10535000FDF772F82168402008620201A4F580611F
:105360002046FFF79DFA2068016841F010010160B6
:105370002068056270BD0000AC0C002010B502F082
:105380008BFABDE810400148FFF704B8AC0C0020D0
:1053900010B510A002F07CF910A313A215A11748B4
:1053A00002F076F916A002F073F916A002F070F977
:1053B0001AA002F06DF920A002F06AF926A002F00E
:1053C00067F92BA002F064F9BDE810406420FDF7F6
:1053D00033B800000D0A0D0A0000000031393A32DE
:1053E000383A3230000000004F63742032322032ED
:1053F0003032330056312E302E330000989600089C
:105400000D0A00002D2E205072657373204B6579B4
:105410003120746F3A200D0A000000002D2E20204C
:105420002D20456E74657220636F6D6D616E642012
:105430004D6F64650D0A00002D2E20202D20456E35
:10544000746572205472616E73706172656E74203F
:105450004D6F64650D0A00002D2E20507265737328
:10546000204B65793220746F3A200D0A000000004D
:105470002D2E20202D20456E7465722050726F6A8B
:1054800065637420547261696E6E696E67204D6F3A
:1054900064650D0A000000002DE9F047DB48002696
:1054A0002DED028B86B0DA4DADF81060017868788A
:1054B000D84CDFF864834FF6FF7700297DD00129AF
:1054C0007CD002297BD19FEDD58AD54C022826D0ED
:1054D00002206870D3A002F0DBF83846FFF702FD27
:1054E00005211F23D4A20846FFF737FE1F23D6A2AB
:1054F00015210520FFF731FE1F2315214D20AA6835
:10550000FFF72BFE2E70D0212046FBF781F884EDAB
:105510002C8A84ED2D8AC4F8B870C4F8BC706888F1
:10552000B0F5967F4BD100F07DFD287804EB80002C
:1055300080ED000A00F002FA287804EB800080ED8C
:105540000A0AFFF752FA297804EB81010865FFF790
:1055500042FA2A7804EB8201886791ED000AD4EDC3
:10556000280AB4EEE00AF1EE10FA01DB84ED280A15
:1055700091ED0A0AD4ED290AB4EEE00AF1EE10FA30
:1055800001DB84ED290A086DD4F8A830984201D3D4
:10559000C4F8A800886FD4F8AC30984201D3C4F89E
:1055A000AC0091ED000AD4ED2C0AB4EEE00AF1EE65
:1055B00010FA01D884ED2C0A02E01EE04AE044E033
:1055C00091ED0A0AD4ED2D0AB4EEE00AF1EE10FADC
:1055D00001D884ED2D0A086DD4F8B830984201D86E
:1055E000C4F8B800886FD4F8BC10884201D8C4F859
:1055F000BC00AA46092A70D0E6E0A0B16E7095A062
:1056000002F046F83846FFF76DFC05211F2396A2ED
:105610000846FFF7A2FD0221012002F025FA002131
:10562000084602F021FA2178204621B1067041880F
:10563000201D02F061F998F800104046002904D0BE
:1056400006704188001D02F09BFC06B0BDEC028B89
:10565000BDE8F087012820D00120687086A002F004
:1056600017F83846FFF73EFC05211F2388A208469D
:10567000FFF773FD782002F0F9F90028E5D0FFF775
:10568000B4F94FF47A71B0FBF1F0614AADF8100053
:10569000121D022104A802F0C3F920780028CAD004
:1056A000804D20212846FDF776F838B1584A2670FB
:1056B000A178121D201D02F0B3F9BCE72078002864
:1056C000B9D020212846FDF766F80028B3D126700E
:1056D00075A001F0DDFFAEE7FFE7002004EB8001DD
:1056E00094ED300AD1ED000A401C0A2830EE200A61
:1056F00084ED300A94ED310AD1ED0A0A30EE200A29
:1057000084ED310AD4F8C8200B6D1A44C4F8C820BF
:10571000D4F8CC20896F1144C4F8CC10DEDB94EDB2
:10572000300AD4ED280A94ED291AD4F8A81070EEA6
:10573000600A94ED310AD4F8C800D4F8AC2030EEF9
:10574000410A411A94ED2C1AD4F8CC00801A30EE9C
:10575000C11AD4ED2D0AD4F8B820891A30EE600AA7
:10576000F4EE000AD4F8BC2061EE208A20EE200A74
:10577000801AC4ED308AC908C00884ED310AC4E932
:1057800032108146884610EE100AA03402F09EFDC9
:1057900005460F4618EE900A02F098FD8DE8A0032A
:1057A00041EC100B4DA053EC102B01F071FFD021F8
:1057B0001B48FAF72DFF84ED048A84ED058A4FF02B
:1057C000FF30A061E061A03CD4F8A400A03402F056
:1057D0007DFD07468846206802F078FD41EC100BFD
:1057E000D4E90201CDE90078CDE9020153EC102B98
:1057F00041A001F04DFF9AF80010092903D0491C7F
:105800008AF8001021E78AF800601EE724000020D3
:1058100004000020A4040020A80800200000004F7D
:10582000241000200D0A5B50726F6A656374204D6E
:105830006F64655D0D0A00005B50726F6A6563748A
:10584000204D6F64655D00005B4465764575695D5C
:105850003A0000000D0A5B436F6D6D616E64204D70
:105860006F64655D0D0A00005B436F6D6D616E6472
:10587000204D6F64655D00000D0A5B5472616E73AC
:10588000706572616E74204D6F64655D0D0A000075
:105890005B5472616E73706572616E74204D6F64DB
:1058A000655D0000000800482D2E205761726E696A
:1058B0006E673A20446F6E27742073656E642064AF
:1058C000617461206E6F7721204D6F64756C652067
:1058D00069732062757379210D0A0000C6BDBEF997
:1058E000CAFDBEDDA3BA25662C2025662C202564C2
:1058F0002C20256400000000D7EEB4F3D6B5CAFD15
:10590000BEDDA3BA25662C2025662C2025642C201C
:105910002564000001460148FFF76CBAE011002041
:1059200010B50446C020FFF7F5FF204600F075F8DB
:10593000BDE810400A20FCF77FBD00000EB5002036
:105940008DF800008DF804008DF8080000F02EF8A6
:1059500001236A461946184600F032F8012301AACD
:105960001946022000F02CF8012302AA1946032050
:1059700000F026F89DF800009DF80410000440EAAD
:1059800001209DF80810084302F08EFB9FED051BD7
:1059900053EC112B02F09CFB02F03EFB00EE100AD0
:1059A0000EBD0000000000000000903F08B501237C
:1059B0006A461946002000F003F89DF8000008BD73
:1059C0002DE9FE4F89461149824601201C461546A5
:1059D0000D4E08704FF4FA784FF47A7708E040469D
:1059E00002F00CFA20B10A49EF20087000F012B85A
:1059F000CDE900544B465246C02130460297FDF790
:105A0000D3F80028EBD1F1E7E01100201C000020C2
:105A10001B0000201EBCBDE8E08F08B5C0B12120EE
:105A20008DF8000001226946262000F029F80020A8
:105A30008DF8000001226946272000F021F811208E
:105A40008DF8000001226946282000F019F808BDF1
:105A5000B8208DF8000001226946262000F010F8D9
:105A600007208DF8000001226946132000F008F895
:105A7000B9208DF80000012269462620E5E70000E4
:105A80007CB5002201928DF8040008788DF805009D
:105A90000D4901204FF4FA760A4C0870750007E0B2
:105AA000304602F0ABF918B10849EF2008707CBD10
:105AB000022301AAC02120460095FCF7CBFF002855
:105AC000EED17CBDE01100201C0000201B00002056
:105AD000154808B5816C41F002018164816C01F0C8
